:020000020000FC
:040000000C9422003A
:04000C000C94190334
:100040000C945D0408E00EBF1FEF1DBF3F065B4F21
:10005000666D7D077F6F00E00093C1000FEF0AB966
:100060005F980FE307B90FE005B900E304B950E06A
:10007000F0E0ECE4E50F5491002708B90FE000939D
:100080006B0001E0009368000E94550478942227D9
:100090004427332700E00093210105E0009322016B
:1000A00009E00093230105E00093240103E000939D
:1000B000250102E000932601002700932701009309
:1000C0003101009332010093330100933401009316
:1000D0004101009342010093430100934401203009
:1000E000B1F02130B1F02230E9F0233011F12430A9
:1000F00029F1253029F1263029F1273061F1283006
:1001000089F12930A1F12A30A1F12B3091F10C9421
:10011000BD000027009332010093330100933401A6
:100120000C94FD00002700933301009334010C94DC
:1001300011010027009334010C9425010C9439011E
:100140000C944D010027009342010093430100935A
:1001500044010C9493010027009343010093440150
:100160000C94A7010027009344010C94BB010C944C
:10017000CF010C94E3010C94190266270E94E60259
:10018000609123010E94EB0201E008B96BB90E9463
:10019000E602609124010E94EB0202E008B96BB90B
:1001A0000E94E602609125010E94EB0204E008B97A
:1001B0006BB90E94E602609126010E94EB022D9825
:1001C00008E008B96BB9423389F0433679F0443618
:1001D00099F444274F9A66276091210163956093B3
:1001E00021016A3039F066270C946F004F9A2C9ADF
:1001F000459875CF0C947D0272CF0E94BF024436A1
:1002000061F4442766276091210163956093210181
:100210006A3029F066270C946F000C946F000C94E0
:100220007D020E94BF02443661F444276627609134
:1002300021016395609321016A3029F066270C94AF
:100240006F000C946F000C947D020E94BF02443634
:1002500061F4442766276091210163956093210131
:100260006A3029F066270C946F000C946F000C9490
:100270007D020E94BF02443661F4442766276091E4
:1002800021016395609321016A3029F066270C945F
:100290006F000C946F000C947D0226E06091310198
:1002A00000913201602B00913301602B00913401E9
:1002B000602B6030A1F160913301643010F40E9432
:1002C0006E0160913401623011F00E946E01662768
:1002D00060933301609334010E946E01609131019B
:1002E0006093230160913201609324016091330196
:1002F00060932501609134016093260166270E9476
:10030000BF02443661F4442766276091210163955A
:10031000609321016A3029F066270C946F000C94D9
:100320006F000C947D020E94F002443661F4442771
:100330006627609121016395609321016A3029F05D
:1003400066270C946F000C946F000C947D020E9441
:10035000F002443661F444276627609121016395D9
:10036000609321016A3029F066270C946F000C9489
:100370006F000C947D020E94F002443661F4442721
:100380006627609121016395609321016A3029F00D
:1003900066270C946F000C946F000C947D020E94F1
:1003A000F002443661F44427662760912101639589
:1003B000609321016A3029F066270C946F000C9439
:1003C0006F000C947D022BE060914101009142018D
:1003D000602B00914301602B00914401602B603041
:1003E00021F160914301643010F40E940402609195
:1003F0004401623011F00E940402662760934301B9
:10040000609344010E94040266270E94BF024436A2
:1004100061F444276627609121016395609321016F
:100420006A3029F066270C946F000C946F000C94CE
:100430007D0266270E94E602609123010E94EB0282
:1004400001E008B96BB90E94E602609124010E94A4
:10045000EB0202E008B96BB90E94E6026091250147
:100460000E94EB0204E008B96BB90E94E6026091B9
:1004700026010E94EB022D9808E008B96BB94233BF
:10048000A9F1433699F14436B9F544274F9A6627C6
:10049000609121016395609321016A3059F16627CB
:1004A0000027609141010091230160130C946F00BB
:1004B00066270027609142010091240160130C948B
:1004C0006F006627002760914301009125016013AA
:1004D0000C946F006627002760914401009126016B
:1004E00060130C946F00459A0C946F004F9A2C9AED
:1004F000459AF5CD0C947D02F2CD60E06093210128
:1005000060912201639560932201663009F0E7CD86
:1005100060E0609322016091230163956093230161
:100520006A3009F0DCCD60E0609323016091240122
:10053000639560932401663009F0D1CD60E060934B
:100540002401609125016395609325016A3019F0BB
:10055000643051F0C4CD60E06093250160912601C4
:10056000639560932601BBCD6091260161FFB7CDF5
:1005700060E06093250160E060932601B0CD6627BE
:100580000E94E602609131010E94EB0201E008B98D
:100590006BB90E94E602609132010E94EB0202E018
:1005A00008B96BB90E94E602609133010E94EB0228
:1005B00004E008B96BB90E94E602609134010E9420
:1005C000EB0208E008B96BB94F9A0895002708B903
:1005D0000BB92D980895F0E0ECE4E60F64910895CE
:1005E00066270E94E602609141010E94EB0201E051
:1005F00008B96BB90E94E602609142010E94EB02C9
:1006000002E008B96BB90E94E602609143010E94C2
:10061000EB0204E008B96BB90E94E6026091440164
:100620000E94EB0208E008B96BB94F982C98459AE4
:1006300008950F930FB70F93203091F0213089F078
:10064000223081F0233079F0243071F0263069F0C7
:10065000273061F0283059F0293051F02B3049F023
:1006600009C014C033C051C070C08EC0ADC0CBC073
:10067000EAC008C103B101FF000000FF000002FF53
:10068000332702FF21E003FF00000AC1309331014C
:10069000303061F003B101FF3A9500FF33953A30F5
:1006A00011F00C945D0330E00C945D0303B101FF85
:1006B00039E000FF33950C945D0302FF332702FFFE
:1006C00022E003FF332703FF20E0EAC0309332012A
:1006D00003B1303059F001FF3A9500FF33953630C1
:1006E00011F00C947C0330E00C947C0301FF35E0A6
:1006F00000FF33950C947C0302FF332702FF23E0B5
:1007000003FF332703FF21E0CBC0309333013030A8
:1007100061F003B101FF3A9500FF33953A3011F0D3
:100720000C949C0330E00C949C0303B101FF39E06E
:1007300000FF33950C949C0302FF332702FF24E053
:1007400003FF332703FF22E0ABC03093340103B132
:10075000303059F001FF3A9500FF3395333011F0F6
:100760000C94BB0330E00C94BB0301FF32E000FFAC
:1007700033950C94BB0302FF332702FF25E003FFF0
:10078000332703FF23E08CC030934101303061F008
:1007900003B101FF3A9500FF33953A3011F00C9404
:1007A000DB0330E00C94DB0303B101FF39E000FF11
:1007B00033950C94DB0302FF332702FF27E003FF8E
:1007C000332703FF24E06CC03093420103B1303083
:1007D00059F001FF3A9500FF3395363011F00C9433
:1007E000FA0330E00C94FA0301FF35E000FF339583
:1007F0000C94FA0302FF332702FF28E003FF33279C
:1008000003FF26E04DC030934301303061F003B167
:1008100001FF3A9500FF33953A3011F00C941A0419
:1008200030E00C941A0403B101FF39E000FF339566
:100830000C941A0402FF332702FF29E003FF332739
:1008400003FF27E02DC03093440103B1303059F04D
:1008500001FF3A9500FF3395333011F00C943904C1
:1008600030E00C94390401FF32E000FF33950C9422
:10087000390402FF332702FF2AE003FF332703FF77
:1008800028E00EC003B101FF000000FF000002FFDE
:10089000332702FF20E002FF2C9803FF29E000C06D
:1008A000D89A0F910FBF0F91189505E005BD03E68B
:1008B00006BD01E000936E00089503E606BDA89A08
:0408C00043951895AF
:00000001FF
